:10068500C100C10102210000012F00014201015DED
:10069500010855000000060030777C085E00000068
:0506A5005B0030777CD2
:03002B00020026AA
:05002600B2A5C2CF32BB
:1003F600AB07AA06EA3395E0F9F8E47F607EEAFDEA
:10040600FC1205958E368F37E5377802C333CE3327
:10041600CED8F9F5788E77E53725E0F574E53633ED
:10042600F573E536C313F566E53713F567E537AEBD
:10043600367802CEC313CE13D8F9F56A8E69E5373E
:10044600AE367803CEC313CE13D8F9F53F8E3EE50C
:1004560036C4F854F0C868F53AE537C4540F48F581
:100466003BAE77AF787C007D061202108E348F3556
:10047600AE77AF787C007D0C1202108E718F72AE53
:0F04860077AF787C007D181202108E308F3122F4
:100776008FCB8DCA8FCD8DCCC2CFD2CAD2ADD2AFE0
:010786002250
:0907CF00C2AFC2CAC2CFD2A522FA
:1006F3008E168F17D3E5179400E5169400400D125C
:0D0703000521E517151770EC151680E8228A
:100710008C148D15AB07AA06EB4A6007EAFFAD0300
:0D072000120776AF15AE141206F30207CFD4
:10079800758920758DFDD28E759850D2AFD2AC2256
:0807D8008F993099FDC29922AE
:10052100E4FFEFB40800504D900530F8282873021D
:10053100054802054C0205540205580205600205F2
:100541006402056C020570C2A28002D2A2C2A3C2DB
:10055100A48022C2A28002D2A2D2A3C2A48016C2C7
:10056100A28002D2A2C2A3D2A4800AC2A28002D2D5
:10057100A2D2A3D2A474232FF8E6F5807D077C00D4
:10058100ED1DAA0470011C4A70F6E4F5800FEF64BA
:0305910008708F60
:010594002244
:030023000206567C
:10065600C0E0309827859968E5224521700A85997A
:1006660038F5217522018012E52264014521700AC0
:0F067600859939F521F522752F01C298D0E03210
:02002E008D0F34
:10003000E4F510F511EF14B41800400302015D90CF
:10004000004D75F003A4C58325F0C58373020095A8
:1000500002009E0200A70200B00200B90200C20224
:1000600000CB0200D40200DD0200E50200ED020038
:10007000F50200FD02010502010D02011502011D3C
:1000800002012502012D02013502013D0201450256
:10009000014D0201557510FC751144020162751085
:1000A000FC75117A0201627510FC7511AD020162D6
:1000B0007510FC7511DC0201627510FD75110A02E4
:1000C00001627510FD7511340201627510FD751124
:1000D0005C0201627510FD7511820201627510FDEE
:1000E0007511A6807D7510FD7511C880757510FDA0
:1000F0007511E8806D7510FE75110680657510FE2E
:10010000751122805D7510FE75113D80557510FECC
:10011000751156804D7510FE75116E80457510FE77
:10012000751185803D7510FE75119A80357510FE2C
:100130007511AE802D7510FE7511C180257510FEEC
:100140007511D3801D7510FE7511E480157510FEB4
:100150007511F4800D7510FF7511038005E4F5101D
:10016000F5117F647E001203F6E50F14B40A005007
:100170007C90017F75F003A4C58325F0C5837302CD
:10018000019D0201A50201AD0201B50201BD0201FE
:10019000C50201CD0201D50201DD0201E58536125D
:1001A000853713804D8577128578138045857312C6
:1001B000857413803D8566128567138035856912C5
:1001C000856A13802D853E12853F138025853A125E
:1001D000853B13801D85341285351380158571127A
:1001E000857213800D8530128531138005E4F51278
:1001F000F513E5114510600BAD13AC12AF11AE1045
:0F020000120710AF0F7E001206F31207CFB29550
:01020F0022CC
:100749008F0B8D0C1207A87FA01205D9AF0B1205CC
:09075900D9AF0C1205D90207C545
:0206D1008F0F89
:1006D3001207A87FA01205D9AF0F1205D91207A8D8
:0F06E3007FA11205D91206AB8F101207C5AF10F9
:0106F20022E5
:10061A00E4F50BF50C7F327E001206F3AF0C1206DE
:10062A00D18F0D050CE50C7002050BFF1206D18F58
:10063A000EAD0EAF0D12002ED2AF050CE50C7002F6
:0B064A00050BC394FFE50B940040CAB1
:010655002282
:0B000600D2AFD2A8D288D2AAD28A22A0
:0300030002072DC4
:10072D00C0E0C0D075D000C007E54270047F0180E5
:0C073D00027F008F42D007D0D0D0E03205
:030013000207875A
:10078700C0D075D000C0077F321207D8D007D0D0AD
:01079700322F
:10076200E4F5187DFFAF181207490518E518D39470
:03077200FF40F055
:010775002261
:10033300E4F50AF58012079820B20C7F147E0012B0
:1003430006F330B2FDD200300007C29512061AC27E
:1003530000E52FB401E2E568B4FF21E4F508F509EF
:10036300AF0974552FF8E6FE74232FF8A606050986
:10037300E509700205086408450870E4E568B4FE01
:1003830021E4F508F509AF09745E2FF8E6FE74233E
:100393002FF8A6060509E509700205086408450853
:1003A30070E4AD38AF0A1207497F0A7E001206F3E4
:1003B300050AE50AD394FF4003E4F50AAD39AF0A11
:1003C3001207497F0A7E001206F3050AE50AD39451
:1003D300FF4003E4F50AE5426401600302033BAD19
:1003E30039AF3812002ED2AFE4F52F7F311207D880
:0303F30002033BC7
:0B0016000000000000000000DFF622E8
:0507B7001207BCD2A1F5
:0807BC007F017E02DEFEDFFA80
:0107C4002212
:0F07A800D2A01207B7C2A01207BCC2A10207BCA1
:0A07C500C2A01207B7D2A00207BCC1
:0205D900AD076C
:1005DB00E4FBFAEDC4131313540124FF92A0ED2591
:1005EB00E0FD1207B7C2A11207BC0BBB08E5D2A0F6
:1005FB001207BCD2A130A00F0AEAD394C840F6C2AE
:0E060B00A11207BC7F0022C2A11207BC7F0112
:0106190022BE
:1006AB00E4FDFCD2A01207BCD2A11207BCEC25E0E2
:1006BB00FCA2A0E43342041207BCC2A11207BC0D7A
:0506CB00BD08E5AF04CD
:0106D0002207
:0300000002049562
:0C049500787FE4F6D8FD75817E0204DC5F
:10021000BC000BBE0029EF8DF084FFADF022E4CCD2
:10022000F875F008EF2FFFEE33FEEC33FCEE9DEC9B
:10023000984005FCEE9DFE0FD5F0E9E4CEFD22EDE1
:10024000F8F5F0EE8420D21CFEADF075F008EF2F2B
:10025000FFED33FD4007985006D5F0F222C398FD1C
:050260000FD5F0EA22B9
:10059500C2D5E830E70FB2D5E4C39BFBE49AFAE491
:1005A50099F9E498F8EC30E717B2D51205CB1202A9
:1005B500A1E4C39BFBE49AFAE499F9E498F8800373
:1005C5001202A130D50DE4C39FFFE49EFEE49DFD1C
:0405D500E49CFC2284
:1004A100020333E493A3F8E493A34003F68001F23B
:1004B10008DFF48029E493A3F85407240CC8C3335C
:1004C100C4540F4420C8834004F456800146F6DF2B
:1004D100E4800B0102040810204080900685E47E30
:1004E100019360BCA3FF543F30E509541FFEE49320
:1004F100A360010ECF54C025E060A840B8E493A3E7
:10050100FAE493A3F8E493A3C8C582C8CAC583CA11
:10051100F0A3C8C582C8CAC583CADFE9DEE780BEC9
:0106AA00004F
:1002650075F008758200EF2FFFEE33FECD33CDCC50
:1002750033CCC58233C5829BED9AEC99E5829840D3
:100285000CF582EE9BFEED9AFDEC99FC0FD5F0D6B0
:10029500E4CEFBE4CDFAE4CCF9A88222B800C1B9DA
:1002A5000059BA002DEC8BF084CFCECDFCE5F0CB18
:1002B500F97818EF2FFFEE33FEED33FDEC33FCEB51
:1002C50033FB10D703994004EB99FB0FD8E5E4F90C
:1002D500FA227818EF2FFFEE33FEED33FDEC33FCF9
:1002E500C933C910D7059BE99A4007EC9BFCE99AED
:1002F500F90FD8E0E4C9FAE4CCFB2275F010EF2F32
:10030500FFEE33FEED33FDCC33CCC833C810D70731
:100315009BEC9AE899400AED9BFDEC9AFCE899F86C
:0E0325000FD5F0DAE4CDFBE4CCFAE4C8F922FF
:00000001FF
